:10100000F8EF3BF000313233463435364537383966
:101010004441304243200001000A006400E803100C
:101020002753656E736F722076616C75653A202068
:0610300025642000000011
:1076760083887D0E466EAC0EE82EFED7462EFCD7CE
:1076860083987D0E466EAC0EE82EFED7462EFCD7AE
:027696001200E0
:10769900205261696E696E672068656176696C79E7
:1076A9003A202000436C65617220776561746865D2
:1076B90072203A2020005261696E2053656E736F03
:1076C90072203A202000204C696768742052616951
:1076D9006E3A202000205261696E696E673A202057
:1076E9000046504710D8B41200000E4A6E000E49E9
:1076F9006E0AD0100E486E940EE82EFED7482EFC66
:10770900D700D0494A4A2A4650495C47504A58D876
:10771900B01200EFD7000E556E000E546E5550187A
:10772900E1640E545CD8B012000B0E4E6EB80E4DCB
:107739006E94EC3CF082B003D0536A532A01D053C3
:107749006A82505318FE0B5318826E544A552AE622
:10775900D712004F505010D8B418D0010E516E04F2
:10776900D0D8904F365036512A50AEFAD74F504D97
:107779005C50504E58D8A004D04F504D5E50504EDA
:107789005AD89050324F32512EF1D74DC04DF04E4C
:10779900C04EF01200000E4B6E000E4A6E48504962
:1077A90010D8B41CD0010E4C6E04D0D8904836497C
:1077B900364C2A49AEFAD7D8904A364B3648504605
:1077C9005C49504758D8A005D04850465E495047B3
:1077D9005A4A80D890493248324C2EEDD74AC04691
:1077E900F04BC047F0120000EE2CF01A0EEE6AE8DA
:1077F90006FDE1990EF66E760EF76E000EF86E0034
:10780900EE60F010EE26F00900F5CFEEFFE550E14D
:1078190050FAE1BF0EF66E760EF76E000EF86E00A6
:10782900EE01F010EE2BF00900F5CFEEFFE550E187
:1078390050FAE1000EF86E0001BFEF3DF0486E838B
:107849009C3F0E476E550EE82EFED7472EFCD700FB
:10785900F048C049F049380F0B496E49500F0B8366
:107869006E7D0E476EAC0EE82EFED7472EFCD73B39
:10787900EC3BF07D0E476EAC0EE82EFED7472EFC92
:10788900D748C049F049500F0B836E7D0E476EAC47
:107899000EE82EFED7472EFCD73BEC3BF07D0E477A
:1078A9006EAC0EE82EFED7472EFCD71200000E95BF
:1078B9006E000E836E8398839C839A000E4C6E0033
:1078C9000E4B6E4CBE06D04C500FE1640E4B5CD88B
:1078D900B00BD09C0E4A6ED70EE82EFED74A2EFC6E
:1078E900D700F04B4A4C2AEDD7330E23EC3CF0324B
:1078F9000E23EC3CF0280E23EC3CF00E0E23EC3C5E
:10790900F0060E23EC3CF0010E23EC3CF09C0E4AF1
:107919006ED70EE82EFED74A2EFCD700F012004D86
:10792900C051F04EC052F051C046F052C047F0006D
:107939000E496E140E486ECFEC3BF046C051F0472D
:10794900C052F04E5004E1050E4D5CD8A012004E15
:107959005008E10A0E4D5CD8B004D01C0EE82EFE8A
:10796900D712004E5008E1140E4D5CD8B004D03C3B
:107979000EE82EFED71200000E506E000E4F6E0557
:10798900D0500EE82EFED74F4A502A51504F5C5224
:10799900505058D8B01200F4D7486E838C3F0E4728
:1079A9006E550EE82EFED7472EFCD700F048C04989
:1079B900F049380F0B496E49500F0B836E7D0E4706
:1079C9006EAC0EE82EFED7472EFCD7838C7D0E4772
:1079D9006EAC0EE82EFED7472EFCD73BEC3BF07D74
:1079E9000E476EAC0EE82EFED7472EFCD748C0498D
:1079F900F049500F0B836E7D0E476EAC0EE82EFEDC
:107A0900D7472EFCD7838C9C0E476ED70EE82EFEE7
:107A1900D7472EFCD700F03BEC3BF09C0E476ED7C6
:107A29000EE82EFED7472EFCD700F01200560E594D
:107A39006E000E5A6E8CD0250E5F18D8B409D0523C
:107A4900C0D9FF53C0DAFF5FC0DFFF524A532A7F14
:107A5900D0000E5B6E54C0F6FF55C0F7FF544A556F
:107A69002A0800F5CF5FF05F50000AD8B47CD064D3
:107A79000AD8B403D00D0AD8A46AD059C0D9FF5A7C
:107A8900C0DAFFDECF5DF0DDCF5EF0020E592600D1
:107A99000E5A225EAE06D0030E5B125D6C5E1ED8D6
:107AA900B05E2A010E5F6E050E5F18D8B412D05F62
:107AB90050020D170EF324F66E100EF420F76E091E
:107AC90000F5505D5C0900F5505E58D8A002D05F02
:107AD9002AEAD75BC058F0030E5816D8B408D0521A
:107AE900C0D9FF53C0DAFF2D0EDF6E524A532A5F09
:107AF900C05CF029D05C50020D170EF324F66E100D
:107B09000EF420F76E0900F5CF48F00A00F5CF49C9
:107B1900F05DC046F05EC047F0CFEC3BF046C04D8B
:107B2900F047C04EF0000E506E0A0E4F6EAEEC3BA1
:107B3900F04D50300F5F6E52C0D9FF53C0DAFF5F6E
:107B4900C0DFFF524A532A5C065C28D8A4D3D75415
:107B5900C0F6FF55C0F7FF544A552A0800F5CF5F14
:107B6900F05F50D8A468D752C0D9FF53C0DAFF00DC
:107B79000EDF6E12005BEC3CF0800E23EC3CF00053
:107B89000E2D6E000E2C6E0DD0010E2C24D96E0018
:107B99000E2D20DA6EDF50306E3050D1EC3CF02CD7
:107BA9004A2D2A010E2C24D96E000E2D20DA6EDF03
:107BB90050D8A4EAD7000E956E000E836E94928277
:107BC9009294948294010EC26E0C0EC16E160EC070
:107BD9006E9490C282C2B2FED7F00EC4644AD080BD
:107BE9000E23EC3CF0000E2D6E000E2C6E0DD074A1
:107BF9000E2C24D96E000E2D20DA6EDF50306E3037
:107C090050D1EC3CF02C4A2D2A740E2C24D96E004C
:107C19000E2D20DA6EDF50D8A4EAD7320E526E004C
:107C29000E536E210E546E100E556EC4CF56F0577A
:107C39006A1BEC3DF0C00E23EC3CF0000E2D6E00EB
:107C49000E2C6E0DD0320E2C24D96E000E2D20DA9A
:107C59006EDF50306E3050D1EC3CF02C4A2D2A3278
:107C69000E2C24D96E000E2D20DA6EDF50D8B4B157
:107C7900D7E9D7F00EC46071D0A00EC4646ED0806D
:107C89000E23EC3CF0000E2D6E000E2C6E0DD01163
:107C99000E2C24D96E000E2D20DA6EDF50306E3096
:107CA90050D1EC3CF02C4A2D2A110E2C24D96E000F
:107CB9000E2D20DA6EDF50D8A4EAD7320E526E00AC
:107CC9000E536E210E546E100E556EC4CF56F057DA
:107CD9006A1BEC3DF0C00E23EC3CF0000E2D6E004B
:107CE9000E2C6E0DD0320E2C24D96E000E2D20DAFA
:107CF9006EDF50306E3050D1EC3CF02C4A2D2A32D8
:107D09000E2C24D96E000E2D20DA6EDF50D8A4EA8D
:107D1900D78FEC3BF08290010E476EF40E466E75DC
:107D2900EC3BF08FEC3BF082900B0E476EB80E46A1
:107D39006E75EC3BF08FEC3BF08290010E476EF4D0
:107D49000E466E75EC3BF08FEC3BF082900B0E47C4
:107D59006EB80E466E75EC3BF03CD7640EC4649564
:107D6900D0A00EC46092D0800E23EC3CF0000E2D02
:107D79006E000E2C6E0DD0200E2C24D96E000E2D07
:107D890020DA6EDF50306E3050D1EC3CF02C4A2DA9
:107D99002A200E2C24D96E000E2D20DA6EDF50D841
:107DA900A4EAD7320E526E000E536E210E546E1095
:107DB9000E556EC4CF56F0576A1BEC3DF0C00E232A
:107DC900EC3CF0000E2D6E000E2C6E0DD0320E2CF8
:107DD90024D96E000E2D20DA6EDF50306E3050D16E
:107DE900EC3CF02C4A2D2A320E2C24D96E000E2D93
:107DF90020DA6EDF50D8A4EAD78FEC3BF0829001ED
:107E09000E476EF40E466E75EC3BF08FEC3BF0823C
:107E190090070E476ED00E466E75EC3BF08FEC3B2B
:107E2900F08290010E476EF40E466E75EC3BF08FB2
:107E3900EC3BF08290070E476ED00E466E75EC3B18
:107E4900F08FEC3BF08290010E476EF40E466E7592
:107E5900EC3BF08FEC3BF082900B0E476EB80E4670
:107E69006E75EC3BF08FEC3BF08290010E476EF49F
:107E79000E466E75EC3BF08FEC3BF082900B0E4793
:107E89006EB80E466E75EC3BF0A4D6800E23EC3C22
:107E9900F0000E2D6E000E2C6E0DD0600E2C24D924
:107EA9006E000E2D20DA6EDF50306E3050D1EC3C72
:107EB900F02C4A2D2A600E2C24D96E000E2D20DAC2
:107EC9006EDF50D8A4EAD7320E526E000E536E21DF
:107ED9000E546E100E556EC4CF56F0576A1BEC3D0A
:107EE900F0C00E23EC3CF0000E2D6E000E2C6E0D32
:107EF900D0320E2C24D96E000E2D20DA6EDF5030D0
:107F09006E3050D1EC3CF02C4A2D2A320E2C24D95B
:107F19006E000E2D20DA6EDF50D8A4EAD78FEC3B25
:107F2900F08290010E476EF40E466E75EC3BF08FB1
:107F3900EC3BF08290000E476E640E466E75EC3B8A
:107F4900F08FEC3BF08290010E476EF40E466E7591
:107F5900EC3BF08FEC3BF08290000E476E640E46CE
:107F69006E75EC3BF08FEC3BF08290010E476EF49E
:107F79000E466E75EC3BF08FEC3BF08290000E479D
:107F89006E640E466E75EC3BF08FEC3BF08290010F
:107F99000E476EF40E466E75EC3BF08FEC3BF082AB
:107FA90090000E476E640E466E75EC3BF08FEC3B0D
:107FB900F08290010E476EF40E466E75EC3BF08F21
:107FC900EC3BF08290000E476E640E466E75EC3BFA
:107FD900F08FEC3BF08290010E476EF40E466E7501
:107FE900EC3BF08FEC3BF08290000E476E640E463E
:087FF9006E75EC3BF0EED5FFC4
:020000040020DA
:08000000FFFFFFFFFFFFFFFF00
:020000040030CA
:0E00000000051F1FFF8385FF0FC00FE00F409C
:00000001FF
